:100000000C9463000C948B000C948B000C943005C2
:100010000C9430050C9430050C948B000C948B00E0
:100020000C948B000C948B000C948B000C948B0024
:100030000C948B000C948B000C948B000C948B0014
:100040000C94E6040C948B000C94B4040C948E0471
:100050000C948B000C948B000C948B000C948B00F4
:100060000C948B000C948B000000000024002700EF
:100070002A0000000008000201000003040700003D
:1000800000000000000000000000230026002900FE
:10009000010204081020408001020408102001021F
:1000A0000408102000000000250028002B00040494
:1000B0000404040404040202020202020303030310
:1000C0000303AA05250911241FBECFEFD8E0DEBF28
:1000D000CDBF11E0A0E0B1E0ECE9F5E102C0059090
:1000E0000D92A23AB107D9F723E0A2EAB1E001C02C
:1000F0001D92A332B207E1F710E0C2E6D0E004C0DF
:100100002197FE010E94B60AC136D107C9F70E94A5
:10011000C0060C94C10A0C9400008F929F92AF927B
:10012000BF92CF92DF92EF92FF9220910C03309119
:100130000D038217930708F052C04B01AA24BB2479
:10014000E82DC52ED62EE72EFF24FC2D342F20912E
:100150001103222361F0829E40011124E92DC29EE9
:1001600060011124FD2D429FD00111243B2FF090FE
:100170001703E0901403A0911203B0911303FE1033
:1001800008C0AC01440F551F840F951F8A0F9B1F99
:1001900014C0880F991F880F991F8A0F9B1F472F24
:1001A000552766277727DC01AF0DB11D222321F0EB
:1001B000429FA0011124452F4C9320911403DC0190
:1001C000A20FB11DEC9320911503DC01A20FB11D0C
:1001D000FC9320911603FC01E20FF11D3083FF9088
:1001E000EF90DF90CF90BF90AF909F908F90089549
:1001F000CF92DF92EF92FF920F931F93CF93DF93F3
:100200006C017A018B01C0E0D0E0CE15DF0589F0EA
:10021000D8016D918D01D601ED91FC910190F08195
:10022000E02DC6010995892B11F47E0102C02196AB
:10023000ECCFC701DF91CF911F910F91FF90EF900D
:10024000DF90CF900895FC01538D448D252F30E031
:10025000842F90E0821B930B541710F0CF960895D3
:1002600001970895FC01918D828D981761F0828D20
:10027000DF01A80FB11D5D968C91928D9F5F9F73DA
:10028000928F90E008958FEF9FEF0895FC01918D7C
:10029000828D981731F0828DE80FF11D858D90E0E9
:1002A00008958FEF9FEF0895FC01918D228D892F86
:1002B00090E0805C9F4F821B91098F73992708956E
:1002C0008EE492E00E94540121E0892B09F420E0A1
:1002D000822F0895FC01848DDF01A80FB11DA35A60
:1002E000BF4F2C91848D90E001968F739927848F56
:1002F000A689B7892C93A089B1898C9180648C934D
:10030000938D848D981306C00288F389E02D808137
:100310008F7D80830895EF92FF920F931F93CF9369
:10032000DF93EC0181E0888F9B8D8C8D981305C045
:10033000E889F989808185FD24C0F62E0B8D10E0B7
:100340000F5F1F4F0F731127E02E8C8DE8120CC02A
:100350000FB607FCFACFE889F989808185FFF5CFD0
:10036000CE010E946A01F1CF8B8DFE01E80FF11DD5
:10037000E35AFF4FF0820B8FEA89FB89808180620C
:1003800007C0EE89FF896083E889F98980818064EC
:10039000808381E090E0DF91CF911F910F91FF90DA
:1003A000EF900895CF93DF93EC01888D8823C9F0F7
:1003B000EA89FB89808185FD05C0A889B9898C916E
:1003C00086FD0FC00FB607FCF5CF808185FFF2CF09
:1003D000A889B9898C9185FFEDCFCE010E946A0171
:1003E000E7CFDF91CF91089580E090E0892B29F04D
:1003F0000E94600181110C940000089590E0FC01BE
:10040000EE58FF4F3491FC01E057FF4F2491FC015F
:10041000E255FF4FE491EE2309F43BC0332339F159
:10042000333091F038F43130A9F0323001F584B531
:100430008F7D12C0373091F03830A1F03430B9F4EC
:10044000809180008F7D03C0809180008F778093A2
:1004500080000DC084B58F7784BD09C08091B00045
:100460008F7703C08091B0008F7D8093B000F0E063
:10047000EE0FFF1FEC55FF4FA591B4918FB7F89485
:10048000EC91611103C020952E2301C02E2B2C93DB
:100490008FBF0895CF93DF9390E0FC01E057FF4FAB
:1004A0002491FC01E255FF4F8491882361F190E093
:1004B000880F991FFC01E859FF4FC591D491FC01A9
:1004C000EC55FF4FA591B491611109C09FB7F89405
:1004D0008881209582238883EC912E230BC0623083
:1004E00061F49FB7F8943881822F809583238883A5
:1004F000EC912E2B2C939FBF06C08FB7F894E88108
:100500002E2B28838FBFDF91CF9108953FB7F894AA
:100510008091E7019091E801A091E901B091EA0191
:1005200026B5A89B05C02F3F19F00196A11DB11D4E
:100530003FBFBA2FA92F982F8827820F911DA11D89
:10054000B11DBC01CD0142E0660F771F881F991FC6
:100550004A95D1F708950F931F93CF93DF93CDB7AB
:10056000DEB729970FB6F894DEBF0FBECDBF8091DE
:10057000120390911303892B09F4A2C00E948602F2
:10058000009118031091190320911A0330911B0355
:10059000DC01CB01801B910BA20BB30B8C32914081
:1005A000A105B10558F3F89480910E0390910F03C3
:1005B0009A838983E0911203F0911303DF0111966E
:1005C0008081898790910A03E0911C03F0911D03BB
:1005D00080911E03992309F42EC09081982B98874F
:1005E0009081809589238F838F818C8388E08B8392
:1005F00058856F8149853B812C8189819A815083FF
:1006000047FD252F3A952083262F39F0441F00C03F
:1006100000006083000000C0F2CF38E04D9160839D
:100620000000019761F7F0931D03E0931C034987D5
:100630003B832C8338C09081982B9887908180953C
:1006400089238F838F818E8388E08D8358856F8186
:1006500049853D812E8189819A81508347FD252FCF
:1006600000C000C0208300C000C000C000C000C0A7
:1006700060830000262F3A9541F0441F000000C01F
:1006800000C000C000C000C0E8CF38E04D9100C0FD
:10069000608300C0019709F7F0931D03E0931C03EA
:1006A00049873D832E839A83898378940E948602AA
:1006B000609318037093190380931A0390931B039C
:1006C00029960FB6F894DEBF0FBECDBFDF91CF9154
:1006D0001F910F9108952091ED013091EE0128179F
:1006E000390771F49091EB018091EC01981741F07A
:1006F000E091EB01F0E0EE55FE4F808190E008952F
:100700008FEF9FEF089508951F93CF93DF93DC0140
:100710005C962D913C915D972115310539F481E06E
:1007200090E013969C938E9312973DC05196ED9155
:10073000FC91529750969C915097892F80951FB7A6
:100740005E964C915E9741FB772770F941FD60956D
:10075000F8944081772311F0492B01C0482340834E
:10076000E9012197F1F748E0508160FF02C0592B61
:1007700001C058235083E9012197F1F76695415054
:1007800099F7772321F090818923808303C08081AA
:10079000982B90831FBF5C968D919C915D970197DC
:1007A000F1F721E030E0C901DF91CF911F91089569
:1007B0002091ED013091EE012817390771F48091F5
:1007C000EC012091EB0190E0805C9F4F821B91092E
:1007D00060E470E00E946C0A089580E090E0089563
:1007E0002091ED013091EE0128173907B9F490916D
:1007F000EB018091EC01981789F0E091EB01F0E0BA
:10080000EE55FE4F80812091EB0130E02F5F3F4F8E
:100810002F7333272093EB0190E008958FEF9FEF24
:100820000895E091ED01F091EE01E817F90769F400
:10083000A389B4899C918589809589238C93109292
:10084000EE011092ED0181E0089580E00895089591
:1008500080E090E00895009769F0FC01019000208D
:10086000E9F73197AF01481B590BBC018BEE92E0C1
:100870000C94F80080E090E00895CF93DF930E94FD
:100880002B04EC018AE291E00E942B048C0F9D1F47
:10089000DF91CF9108958F929F92AF92BF920F9365
:1008A0001F93CF93DF93CDB7DEB7A1970FB6F89420
:1008B000DEBF0FBECDBF19A2423008F44AE08E0160
:1008C0000F5D1F4F842E912CA12CB12CA5019401FA
:1008D0000E94800AE62FB901CA0101501109EA30CD
:1008E00014F4E05D01C0E95CD801EC93232B242BC8
:1008F000252B61F7C8010E942B04A1960FB6F8942E
:10090000DEBF0FBECDBFDF91CF911F910F91BF9082
:10091000AF909F908F9008950E94BC0A1F920F92F3
:100920000FB60F9211242F933F934F935F936F93C2
:100930007F938F939F93AF93BF93EF93FF938EE437
:1009400092E00E946A01FF91EF91BF91AF919F9158
:100950008F917F916F915F914F913F912F910F9068
:100960000FBE0F901F9018951F920F920FB60F9207
:1009700011242F938F939F93EF93FF93E0915E0247
:10098000F0915F028081E0916402F091650282FD46
:1009900012C09081809167028F5F8F7320916802EF
:1009A000821751F0E0916702F0E0E25BFD4F958F16
:1009B0008093670201C08081FF91EF919F918F9199
:1009C0002F910F900FBE0F901F9018951F920F92AE
:1009D0000FB60F9211242F933F938F939F93AF9352
:1009E000BF938091E3019091E401A091E501B09162
:1009F000E6013091E20123E0230F2D3720F4019628
:100A0000A11DB11D05C026E8230F0296A11DB11D31
:100A10002093E2018093E3019093E401A093E50128
:100A2000B093E6018091E7019091E801A091E9017E
:100A3000B091EA010196A11DB11D8093E701909349
:100A4000E801A093E901B093EA01BF91AF919F91B2
:100A50008F913F912F910F900FBE0F901F9018957F
:100A60001F920F920FB60F9211242F933F934F9323
:100A70005F936F937F938F939F93AF93BF93EF9306
:100A8000FF93E091ED01F091EE01309709F451C030
:100A9000968DA685B785858591FF04C09C91892395
:100AA00029F447C09C91892309F043C0A389B489E4
:100AB0009C918589809589238C9386899789019754
:100AC000F1F7608D718DA685B785558538E020E0FA
:100AD000CB010197F1F7822F90E095958795282F0C
:100AE0004C91452309F02068315091F7868D81FDA6
:100AF00020958091EC0190E001968F7399273091B9
:100B0000EB01381749F0A091EC01B0E0AE55BE4FB3
:100B10002C938093EC0103C0868D8160868F828D3B
:100B2000938D0197F1F7A389B4899C918589892BCD
:100B30008C93FF91EF91BF91AF919F918F917F9196
:100B40006F915F914F913F912F910F900FBE0F903A
:100B50001F9018950F931F93CF93DF93109251021C
:100B60001092500288EE93E0A0E0B0E08093520231
:100B700090935302A0935402B09355028AE091E0FF
:100B800090934F0280934E0285EC90E090935B022D
:100B900080935A0284EC90E090935D0280935C0213
:100BA00080EC90E090935F0280935E0281EC90E095
:100BB000909361028093600282EC90E090936302D4
:100BC0008093620286EC90E09093650280936402C9
:100BD00010926702109268021092690210926A02E3
:100BE00010920B0310921103109218031092190324
:100BF00010921A0310921B0381E0809317038093D5
:100C000014031092150392E09093160380930A0345
:100C100087E590E090930F0380930E030E943F09B5
:100C20009093130380931203009761F027E5FC0172
:100C300011922A95E9F78DE190E090930D0380934E
:100C40000C0308C010920F0310920E0310920D03B4
:100C500010920C0387E08093100380910B0388238C
:100C600041F061E087E00E944A0260E087E00E9474
:100C7000FE01C5EBD0E0FE018491E82FF0E0EE0F1D
:100C8000FF1FEC55FF4F8591949190931D03809326
:100C90001C0307E910E0F801849180931E03109271
:100CA000EE021092ED0288EE93E0A0E0B0E08093B7
:100CB000EF029093F002A093F102B093F2028CE164
:100CC00091E09093EC028093EB0210920203109259
:100CD0000103109204031092030310920603109272
:100CE00005031092080310920703609109036E7FB9
:100CF0006D7F609309036695617081E0682788E0E5
:100D00000E94FE0161E088E00E944A02E8E9F0E00A
:100D1000E491E093FB02E6EBF0E0849190E0880F31
:100D2000991F8C559F4FFC01259134913093FD0202
:100D30002093FC0260E087E00E944A028091090350
:100D400081FD04C061E087E00E94FE0187E080939E
:100D5000F702F80104910093F802FE01C491EC2F10
:100D6000F0E0EE0FFF1FEA57FF4F859194919093AB
:100D7000FA028093F902DF91CF911F910F910895AC
:100D8000789484B5826084BD84B5816084BD85B566
:100D9000826085BD85B5816085BD80916E00816072
:100DA00080936E0010928100809181008260809318
:100DB000810080918100816080938100809180001A
:100DC0008160809380008091B10084608093B10045
:100DD0008091B00081608093B00080917A0084603F
:100DE00080937A0080917A00826080937A0080916B
:100DF0007A00816080937A0080917A008068809385
:100E00007A001092C100109206031092050310920E
:100E100004031092030310920203109201038FE166
:100E200090E090930803809307039091F702963126
:100E300008F057C021E030E0309302032093010313
:100E40002DE130E030930403209303032DE030E0E4
:100E5000309306032093050320916800983050F0EA
:100E600031E09E3008F430E081E001C0880F3A950F
:100E7000EAF701C084E0822B80936800983038F054
:100E80009E3040F0963148F020E030E008C02DE67A
:100E900030E005C02BE630E002C02CE630E03093B5
:100EA000FF022093FE02983030F481E001C0880FE9
:100EB0009A95EAF70EC0292F30E09E3018F428509A
:100EC000310902C02E50310981E001C0880F2A95F6
:100ED000EAF780930003809107039091080301973C
:100EE000F1F78091050390910603892B21F1809100
:100EF000ED019091EE0122E08B3E9207E1F0009728
:100F000011F00E941104809109038E7F80930903E0
:100F10001092EC011092EB018BEE92E09093EE01B7
:100F20008093ED01E091FE02F091FF0290818091AB
:100F30000003892B8083E0915E02F0915F0282E0E2
:100F40008083E0915A02F0915B021082E0915C0292
:100F5000F0915D0280E1808310926602E09162026E
:100F6000F091630286E08083E0916002F09161027B
:100F7000808180618083E0916002F09161028081D4
:100F800088608083E0916002F091610280818068D6
:100F90008083E0916002F091610280818F7D808387
:100FA0008091100387FD08C061E00E944A0260E062
:100FB000809110030E94FE0181E080930B030E9448
:100FC000AB028EE492E00E945401892B29F08EE45A
:100FD00092E00E943201F5CF8EE492E00E94D201AD
:100FE000FF24F3948EE492E00E945401892B09F4CB
:100FF00029C18EE492E00E9454011816190644F4A7
:1010000080914D02811104C08EE492E00E94D201D1
:101010008EE492E00E94320190914D0291111CC029
:10102000811103C0F0924D0231C010924D02682F21
:1010300070E080E090E04AE00E944B048DE291E095
:101040000E943D048EE492E00E94D20110924C0274
:1010500010924B026FEFDDC090914C029130E1F4A1
:1010600080934B028AE291E00E942B048FE491E08E
:101070000E942B0460914B0270E080E090E04AE017
:101080000E944B0484E691E00E943D0480914C0252
:101090008F5F80934C02A6CF492F50E020914B02E6
:1010A00030E02F5F3F4F2417350744F0FA01E3513A
:1010B000FE4F80839F5F90934C0294CF8F3F09F047
:1010C000ADC0CFEED1E080914B0290E09E012F5E4B
:1010D00031402817390764F4699170E080E090E0AE
:1010E0004AE00E944B0482E691E00E942B04EBCF81
:1010F0008DE691E00E943D048091EF01823069F01D
:1011000008F47CC08430E9F1E8F0853009F071C062
:10111000C2EFD1E001E010E051C08091F1014091B7
:10112000F20150E060E070E0762F652F542F4427E5
:10113000682B8091F301482B8091F00190E00E9490
:101140008D0039C00091F101C091F001D0E0809193
:10115000F2018090F301912CA12CB12CBA2CA92C76
:10116000982C8824A82A8091F401882A10E00C1772
:101170001D070CF1B501A401CE010E948D0021963E
:10118000F6CF8091F0018090F101912CA12CB12C2F
:10119000BA2CA92C982C8824A82A8091F201882A9C
:1011A000C0E0D0E0B501A401CE010E948D002196DF
:1011B000CE31D105B9F70E94AB0220C0FE013297B3
:1011C00080813196408150E060E070E0762F652F9D
:1011D000542F4427682B8881482BC8010E948D001A
:1011E0000E94AB020F5F1F4F23960E31110531F79E
:1011F00005C062E08EE492E00E948B0110924D02E5
:101200008EE492E00E94D20110924C0210924B02A6
:1012100060E08EE492E00E948B01E4CE10924D02D9
:1012200084E891E00E943D046FEF8EE492E00E941A
:101230008B018EE492E00E94D20110924C02109237
:101240004B02D0CE0E94F401CDCE8CE191E0909380
:10125000EC028093EB028BEE92E00E9411048091ED
:10126000120390911303009711F00E94D40980910A
:10127000100387FD03C060E00C944A020895CF93E9
:10128000DF938230910510F482E090E0E091210339
:10129000F091220320E030E0C0E0D0E0309711F17F
:1012A0004081518148175907C0F04817590761F428
:1012B00082819381209719F09B838A832BC090931E
:1012C00022038093210326C02115310519F042170E
:1012D000530718F49A01BE01DF01EF010280F38188
:1012E000E02DDCCF2115310509F1281B390B243005
:1012F000310590F412968D919C91139761157105AB
:1013000021F0FB019383828304C090932203809396
:101310002103FD01329644C0FD01E20FF31F8193CA
:101320009193225031092D933C933AC020911F0391
:1013300030912003232B41F42091020130910301CD
:101340003093200320931F0320910001309101016D
:101350002115310541F42DB73EB74091040150915C
:101360000501241B350BE0911F03F0912003E217C8
:10137000F307A0F42E1B3F0B2817390778F0AC01B8
:101380004E5F5F4F2417350748F04E0F5F1F509395
:10139000200340931F038193919302C0E0E0F0E0AB
:1013A000CF01DF91CF9108950F931F93CF93DF93D8
:1013B000009709F48CC0FC013297138212820091CD
:1013C0002103109122030115110581F4208131813F
:1013D000820F931F20911F03309120032817390794
:1013E00079F5F0932003E0931F0371C0D80140E02A
:1013F00050E0AE17BF0750F412962D913C91139711
:10140000AD012115310509F1D901F3CF9D01DA01B3
:101410003383228360817181860F971F8217930720
:1014200069F4EC0128813981260F371F2E5F3F4F69
:10143000318320838A819B8193838283452B29F486
:10144000F0932203E093210342C01396FC93EE93A2
:101450001297ED01499159919E01240F351FE21712
:10146000F30771F480819181840F951F0296119684
:101470009C938E938281938113969C938E93129763
:10148000E0E0F0E0D80112968D919C9113970097BF
:1014900019F0F8018C01F6CF8D919C9198012E5F87
:1014A0003F4F820F931F20911F0330912003281775
:1014B000390769F4309729F410922203109221031E
:1014C00002C0138212821093200300931F03DF9146
:1014D000CF911F910F91089597FB072E16F400945A
:1014E00007D077FD09D00E94A20A07FC05D03EF480
:1014F000909581959F4F0895709561957F4F0895C0
:10150000A1E21A2EAA1BBB1BFD010DC0AA1FBB1F07
:10151000EE1FFF1FA217B307E407F50720F0A21B79
:10152000B30BE40BF50B661F771F881F991F1A94E6
:1015300069F760957095809590959B01AC01BD0110
:10154000CF010895AA1BBB1B51E107C0AA1FBB1FF7
:10155000A617B70710F0A61BB70B881F991F5A953F
:10156000A9F780959095BC01CD010895EE0FFF1F5E
:101570000590F491E02D099481E090E0F8940C94AA
:10158000C10A10E0C2E6D0E004C0FE010E94B60A23
:0C1590002196C336D107C9F7F894FFCFAD
:10159C00000023038000000000008B01F8002301F1
:1015AC00D201540132014601000000008403F8000E
:1015BC0028048303D803F0036B030D0A00202D3E8F
:1015CC00206572726575722C207072656D6965721A
:1015DC00206F637465742070617320612030005437
:1015EC0061696C6C65206465206C61207472616D3E
:1015FC00653A2000206F63746574732E002D3E20B5
:10160C005472616D65204F4B202863616C6C626174
:10161C00636B29004572726575722C206465726E5D
:10162C00696572206F63746574207061732061202A
:02163C0031007B
:00000001FF
